{
  "_format": "hh-sol-artifact-1",
  "contractName": "NFTMinterEion",
  "sourceName": "contracts/eionNFT.sol",
  "abi": [
    {
      "inputs": [],
      "stateMutability": "nonpayable",
      "type": "constructor"
    },
    {
      "anonymous": false,
      "inputs": [
        {
          "indexed": true,
          "internalType": "address",
          "name": "owner",
          "type": "address"
        },
        {
          "indexed": true,
          "internalType": "address",
          "name": "approved",
          "type": "address"
        },
        {
          "indexed": true,
          "internalType": "uint256",
          "name": "tokenId",
          "type": "uint256"
        }
      ],
      "name": "Approval",
      "type": "event"
    },
    {
      "anonymous": false,
      "inputs": [
        {
          "indexed": true,
          "internalType": "address",
          "name": "owner",
          "type": "address"
        },
        {
          "indexed": true,
          "internalType": "address",
          "name": "operator",
          "type": "address"
        },
        {
          "indexed": false,
          "internalType": "bool",
          "name": "approved",
          "type": "bool"
        }
      ],
      "name": "ApprovalForAll",
      "type": "event"
    },
    {
      "anonymous": false,
      "inputs": [
        {
          "indexed": true,
          "internalType": "address",
          "name": "from",
          "type": "address"
        },
        {
          "indexed": true,
          "internalType": "address",
          "name": "to",
          "type": "address"
        },
        {
          "indexed": true,
          "internalType": "uint256",
          "name": "tokenId",
          "type": "uint256"
        }
      ],
      "name": "Transfer",
      "type": "event"
    },
    {
      "inputs": [
        {
          "internalType": "address",
          "name": "to",
          "type": "address"
        },
        {
          "internalType": "uint256",
          "name": "tokenId",
          "type": "uint256"
        }
      ],
      "name": "approve",
      "outputs": [],
      "stateMutability": "nonpayable",
      "type": "function"
    },
    {
      "inputs": [
        {
          "internalType": "address",
          "name": "owner",
          "type": "address"
        }
      ],
      "name": "balanceOf",
      "outputs": [
        {
          "internalType": "uint256",
          "name": "",
          "type": "uint256"
        }
      ],
      "stateMutability": "view",
      "type": "function"
    },
    {
      "inputs": [
        {
          "internalType": "uint256",
          "name": "tokenId",
          "type": "uint256"
        }
      ],
      "name": "getApproved",
      "outputs": [
        {
          "internalType": "address",
          "name": "",
          "type": "address"
        }
      ],
      "stateMutability": "view",
      "type": "function"
    },
    {
      "inputs": [
        {
          "internalType": "address",
          "name": "owner",
          "type": "address"
        },
        {
          "internalType": "address",
          "name": "operator",
          "type": "address"
        }
      ],
      "name": "isApprovedForAll",
      "outputs": [
        {
          "internalType": "bool",
          "name": "",
          "type": "bool"
        }
      ],
      "stateMutability": "view",
      "type": "function"
    },
    {
      "inputs": [
        {
          "internalType": "address",
          "name": "recipient",
          "type": "address"
        },
        {
          "internalType": "string",
          "name": "tokenURI",
          "type": "string"
        }
      ],
      "name": "mintNFT",
      "outputs": [
        {
          "internalType": "uint256",
          "name": "",
          "type": "uint256"
        }
      ],
      "stateMutability": "nonpayable",
      "type": "function"
    },
    {
      "inputs": [],
      "name": "name",
      "outputs": [
        {
          "internalType": "string",
          "name": "",
          "type": "string"
        }
      ],
      "stateMutability": "view",
      "type": "function"
    },
    {
      "inputs": [
        {
          "internalType": "uint256",
          "name": "tokenId",
          "type": "uint256"
        }
      ],
      "name": "ownerOf",
      "outputs": [
        {
          "internalType": "address",
          "name": "",
          "type": "address"
        }
      ],
      "stateMutability": "view",
      "type": "function"
    },
    {
      "inputs": [
        {
          "internalType": "address",
          "name": "from",
          "type": "address"
        },
        {
          "internalType": "address",
          "name": "to",
          "type": "address"
        },
        {
          "internalType": "uint256",
          "name": "tokenId",
          "type": "uint256"
        }
      ],
      "name": "safeTransferFrom",
      "outputs": [],
      "stateMutability": "nonpayable",
      "type": "function"
    },
    {
      "inputs": [
        {
          "internalType": "address",
          "name": "from",
          "type": "address"
        },
        {
          "internalType": "address",
          "name": "to",
          "type": "address"
        },
        {
          "internalType": "uint256",
          "name": "tokenId",
          "type": "uint256"
        },
        {
          "internalType": "bytes",
          "name": "data",
          "type": "bytes"
        }
      ],
      "name": "safeTransferFrom",
      "outputs": [],
      "stateMutability": "nonpayable",
      "type": "function"
    },
    {
      "inputs": [
        {
          "internalType": "address",
          "name": "operator",
          "type": "address"
        },
        {
          "internalType": "bool",
          "name": "approved",
          "type": "bool"
        }
      ],
      "name": "setApprovalForAll",
      "outputs": [],
      "stateMutability": "nonpayable",
      "type": "function"
    },
    {
      "inputs": [
        {
          "internalType": "bytes4",
          "name": "interfaceId",
          "type": "bytes4"
        }
      ],
      "name": "supportsInterface",
      "outputs": [
        {
          "internalType": "bool",
          "name": "",
          "type": "bool"
        }
      ],
      "stateMutability": "view",
      "type": "function"
    },
    {
      "inputs": [],
      "name": "symbol",
      "outputs": [
        {
          "internalType": "string",
          "name": "",
          "type": "string"
        }
      ],
      "stateMutability": "view",
      "type": "function"
    },
    {
      "inputs": [
        {
          "internalType": "uint256",
          "name": "tokenId",
          "type": "uint256"
        }
      ],
      "name": "tokenURI",
      "outputs": [
        {
          "internalType": "string",
          "name": "",
          "type": "string"
        }
      ],
      "stateMutability": "view",
      "type": "function"
    },
    {
      "inputs": [
        {
          "internalType": "address",
          "name": "from",
          "type": "address"
        },
        {
          "internalType": "address",
          "name": "to",
          "type": "address"
        },
        {
          "internalType": "uint256",
          "name": "tokenId",
          "type": "uint256"
        }
      ],
      "name": "transferFrom",
      "outputs": [],
      "stateMutability": "nonpayable",
      "type": "function"
    }
  ],
  "bytecode": "0x60806040523480156200001157600080fd5b506040518060400160405280600d81526020016c27232a26b4b73a32b922b4b7b760991b8152506040518060400160405280600381526020016213919560ea1b815250816000908162000065919062000122565b50600162000074828262000122565b505050620001ee565b634e487b7160e01b600052604160045260246000fd5b600181811c90821680620000a857607f821691505b602082108103620000c957634e487b7160e01b600052602260045260246000fd5b50919050565b601f8211156200011d57600081815260208120601f850160051c81016020861015620000f85750805b601f850160051c820191505b81811015620001195782815560010162000104565b5050505b505050565b81516001600160401b038111156200013e576200013e6200007d565b62000156816200014f845462000093565b84620000cf565b602080601f8311600181146200018e5760008415620001755750858301515b600019600386901b1c1916600185901b17855562000119565b600085815260208120601f198616915b82811015620001bf578886015182559484019460019091019084016200019e565b5085821015620001de5787850151600019600388901b60f8161c191681555b5050505050600190811b01905550565b6116cf80620001fe6000396000f3fe608060405234801561001057600080fd5b50600436106100ea5760003560e01c806370a082311161008c578063b88d4fde11610066578063b88d4fde146101e1578063c87b56dd146101f4578063e985e9c514610207578063eacabe141461021a57600080fd5b806370a08231146101a557806395d89b41146101c6578063a22cb465146101ce57600080fd5b8063095ea7b3116100c8578063095ea7b31461015757806323b872dd1461016c57806342842e0e1461017f5780636352211e1461019257600080fd5b806301ffc9a7146100ef57806306fdde0314610117578063081812fc1461012c575b600080fd5b6101026100fd366004611099565b61022d565b60405190151581526020015b60405180910390f35b61011f61027f565b60405161010e9190611106565b61013f61013a366004611119565b610311565b6040516001600160a01b03909116815260200161010e565b61016a61016536600461114e565b610338565b005b61016a61017a366004611178565b610452565b61016a61018d366004611178565b610483565b61013f6101a0366004611119565b61049e565b6101b86101b33660046111b4565b6104fe565b60405190815260200161010e565b61011f610584565b61016a6101dc3660046111cf565b610593565b61016a6101ef366004611297565b6105a2565b61011f610202366004611119565b6105da565b610102610215366004611313565b6106ea565b6101b8610228366004611346565b610718565b60006001600160e01b031982166380ac58cd60e01b148061025e57506001600160e01b03198216635b5e139f60e01b145b8061027957506301ffc9a760e01b6001600160e01b03198316145b92915050565b60606000805461028e906113a8565b80601f01602080910402602001604051908101604052809291908181526020018280546102ba906113a8565b80156103075780601f106102dc57610100808354040283529160200191610307565b820191906000526020600020905b8154815290600101906020018083116102ea57829003601f168201915b5050505050905090565b600061031c82610750565b506000908152600460205260409020546001600160a01b031690565b60006103438261049e565b9050806001600160a01b0316836001600160a01b0316036103b55760405162461bcd60e51b815260206004820152602160248201527f4552433732313a20617070726f76616c20746f2063757272656e74206f776e656044820152603960f91b60648201526084015b60405180910390fd5b336001600160a01b03821614806103d157506103d181336106ea565b6104435760405162461bcd60e51b815260206004820152603d60248201527f4552433732313a20617070726f76652063616c6c6572206973206e6f7420746f60448201527f6b656e206f776e6572206f7220617070726f76656420666f7220616c6c00000060648201526084016103ac565b61044d83836107b2565b505050565b61045c3382610820565b6104785760405162461bcd60e51b81526004016103ac906113e2565b61044d83838361087e565b61044d838383604051806020016040528060008152506105a2565b6000818152600260205260408120546001600160a01b0316806102795760405162461bcd60e51b8152602060048201526018602482015277115490cdcc8c4e881a5b9d985b1a59081d1bdad95b88125160421b60448201526064016103ac565b60006001600160a01b0382166105685760405162461bcd60e51b815260206004820152602960248201527f4552433732313a2061646472657373207a65726f206973206e6f7420612076616044820152683634b21037bbb732b960b91b60648201526084016103ac565b506001600160a01b031660009081526003602052604090205490565b60606001805461028e906113a8565b61059e3383836109ef565b5050565b6105ac3383610820565b6105c85760405162461bcd60e51b81526004016103ac906113e2565b6105d484848484610abd565b50505050565b60606105e582610750565b600082815260066020526040812080546105fe906113a8565b80601f016020809104026020016040519081016040528092919081815260200182805461062a906113a8565b80156106775780601f1061064c57610100808354040283529160200191610677565b820191906000526020600020905b81548152906001019060200180831161065a57829003601f168201915b50505050509050600061069560408051602081019091526000815290565b905080516000036106a7575092915050565b8151156106d95780826040516020016106c192919061142f565b60405160208183030381529060405292505050919050565b6106e284610af0565b949350505050565b6001600160a01b03918216600090815260056020908152604080832093909416825291909152205460ff1690565b6000610728600780546001019055565b600061073360075490565b905061073f8482610b63565b6107498184610cfc565b9392505050565b6000818152600260205260409020546001600160a01b03166107af5760405162461bcd60e51b8152602060048201526018602482015277115490cdcc8c4e881a5b9d985b1a59081d1bdad95b88125160421b60448201526064016103ac565b50565b600081815260046020526040902080546001600160a01b0319166001600160a01b03841690811790915581906107e78261049e565b6001600160a01b03167f8c5be1e5ebec7d5bd14f71427d1e84f3dd0314c0f7b2291e5b200ac8c7c3b92560405160405180910390a45050565b60008061082c8361049e565b9050806001600160a01b0316846001600160a01b03161480610853575061085381856106ea565b806106e25750836001600160a01b031661086c84610311565b6001600160a01b031614949350505050565b826001600160a01b03166108918261049e565b6001600160a01b0316146108b75760405162461bcd60e51b81526004016103ac9061145e565b6001600160a01b0382166109195760405162461bcd60e51b8152602060048201526024808201527f4552433732313a207472616e7366657220746f20746865207a65726f206164646044820152637265737360e01b60648201526084016103ac565b6109268383836001610d8f565b826001600160a01b03166109398261049e565b6001600160a01b03161461095f5760405162461bcd60e51b81526004016103ac9061145e565b600081815260046020908152604080832080546001600160a01b03199081169091556001600160a01b0387811680865260038552838620805460001901905590871680865283862080546001019055868652600290945282852080549092168417909155905184937fddf252ad1be2c89b69c2b068fc378daa952ba7f163c4a11628f55a4df523b3ef91a4505050565b816001600160a01b0316836001600160a01b031603610a505760405162461bcd60e51b815260206004820152601960248201527f4552433732313a20617070726f766520746f2063616c6c65720000000000000060448201526064016103ac565b6001600160a01b03838116600081815260056020908152604080832094871680845294825291829020805460ff191686151590811790915591519182527f17307eab39ab6107e8899845ad3d59bd9653f200f220920489ca2b5937696c31910160405180910390a3505050565b610ac884848461087e565b610ad484848484610e17565b6105d45760405162461bcd60e51b81526004016103ac906114a3565b6060610afb82610750565b6000610b1260408051602081019091526000815290565b90506000815111610b325760405180602001604052806000815250610749565b80610b3c84610f18565b604051602001610b4d92919061142f565b6040516020818303038152906040529392505050565b6001600160a01b038216610bb95760405162461bcd60e51b815260206004820181905260248201527f4552433732313a206d696e7420746f20746865207a65726f206164647265737360448201526064016103ac565b6000818152600260205260409020546001600160a01b031615610c1e5760405162461bcd60e51b815260206004820152601c60248201527f4552433732313a20746f6b656e20616c7265616479206d696e7465640000000060448201526064016103ac565b610c2c600083836001610d8f565b6000818152600260205260409020546001600160a01b031615610c915760405162461bcd60e51b815260206004820152601c60248201527f4552433732313a20746f6b656e20616c7265616479206d696e7465640000000060448201526064016103ac565b6001600160a01b038216600081815260036020908152604080832080546001019055848352600290915280822080546001600160a01b0319168417905551839291907fddf252ad1be2c89b69c2b068fc378daa952ba7f163c4a11628f55a4df523b3ef908290a45050565b6000828152600260205260409020546001600160a01b0316610d775760405162461bcd60e51b815260206004820152602e60248201527f45524337323155524953746f726167653a2055524920736574206f66206e6f6e60448201526d32bc34b9ba32b73a103a37b5b2b760911b60648201526084016103ac565b600082815260066020526040902061044d8282611543565b60018111156105d4576001600160a01b03841615610dd5576001600160a01b03841660009081526003602052604081208054839290610dcf908490611619565b90915550505b6001600160a01b038316156105d4576001600160a01b03831660009081526003602052604081208054839290610e0c90849061162c565b909155505050505050565b60006001600160a01b0384163b15610f0d57604051630a85bd0160e11b81526001600160a01b0385169063150b7a0290610e5b90339089908890889060040161163f565b6020604051808303816000875af1925050508015610e96575060408051601f3d908101601f19168201909252610e939181019061167c565b60015b610ef3573d808015610ec4576040519150601f19603f3d011682016040523d82523d6000602084013e610ec9565b606091505b508051600003610eeb5760405162461bcd60e51b81526004016103ac906114a3565b805181602001fd5b6001600160e01b031916630a85bd0160e11b1490506106e2565b506001949350505050565b60606000610f2583610fab565b600101905060008167ffffffffffffffff811115610f4557610f4561120b565b6040519080825280601f01601f191660200182016040528015610f6f576020820181803683370190505b5090508181016020015b600019016f181899199a1a9b1b9c1cb0b131b232b360811b600a86061a8153600a8504945084610f7957509392505050565b60008072184f03e93ff9f4daa797ed6e38ed64bf6a1f0160401b8310610fea5772184f03e93ff9f4daa797ed6e38ed64bf6a1f0160401b830492506040015b6d04ee2d6d415b85acef81000000008310611016576d04ee2d6d415b85acef8100000000830492506020015b662386f26fc10000831061103457662386f26fc10000830492506010015b6305f5e100831061104c576305f5e100830492506008015b612710831061106057612710830492506004015b60648310611072576064830492506002015b600a83106102795760010192915050565b6001600160e01b0319811681146107af57600080fd5b6000602082840312156110ab57600080fd5b813561074981611083565b60005b838110156110d15781810151838201526020016110b9565b50506000910152565b600081518084526110f28160208601602086016110b6565b601f01601f19169290920160200192915050565b60208152600061074960208301846110da565b60006020828403121561112b57600080fd5b5035919050565b80356001600160a01b038116811461114957600080fd5b919050565b6000806040838503121561116157600080fd5b61116a83611132565b946020939093013593505050565b60008060006060848603121561118d57600080fd5b61119684611132565b92506111a460208501611132565b9150604084013590509250925092565b6000602082840312156111c657600080fd5b61074982611132565b600080604083850312156111e257600080fd5b6111eb83611132565b91506020830135801515811461120057600080fd5b809150509250929050565b634e487b7160e01b600052604160045260246000fd5b600067ffffffffffffffff8084111561123c5761123c61120b565b604051601f8501601f19908116603f011681019082821181831017156112645761126461120b565b8160405280935085815286868601111561127d57600080fd5b858560208301376000602087830101525050509392505050565b600080600080608085870312156112ad57600080fd5b6112b685611132565b93506112c460208601611132565b925060408501359150606085013567ffffffffffffffff8111156112e757600080fd5b8501601f810187136112f857600080fd5b61130787823560208401611221565b91505092959194509250565b6000806040838503121561132657600080fd5b61132f83611132565b915061133d60208401611132565b90509250929050565b6000806040838503121561135957600080fd5b61136283611132565b9150602083013567ffffffffffffffff81111561137e57600080fd5b8301601f8101851361138f57600080fd5b61139e85823560208401611221565b9150509250929050565b600181811c908216806113bc57607f821691505b6020821081036113dc57634e487b7160e01b600052602260045260246000fd5b50919050565b6020808252602d908201527f4552433732313a2063616c6c6572206973206e6f7420746f6b656e206f776e6560408201526c1c881bdc88185c1c1c9bdd9959609a1b606082015260800190565b600083516114418184602088016110b6565b8351908301906114558183602088016110b6565b01949350505050565b60208082526025908201527f4552433732313a207472616e736665722066726f6d20696e636f72726563742060408201526437bbb732b960d91b606082015260800190565b60208082526032908201527f4552433732313a207472616e7366657220746f206e6f6e20455243373231526560408201527131b2b4bb32b91034b6b83632b6b2b73a32b960711b606082015260800190565b601f82111561044d57600081815260208120601f850160051c8101602086101561151c5750805b601f850160051c820191505b8181101561153b57828155600101611528565b505050505050565b815167ffffffffffffffff81111561155d5761155d61120b565b6115718161156b84546113a8565b846114f5565b602080601f8311600181146115a6576000841561158e5750858301515b600019600386901b1c1916600185901b17855561153b565b600085815260208120601f198616915b828110156115d5578886015182559484019460019091019084016115b6565b50858210156115f35787850151600019600388901b60f8161c191681555b5050505050600190811b01905550565b634e487b7160e01b600052601160045260246000fd5b8181038181111561027957610279611603565b8082018082111561027957610279611603565b6001600160a01b0385811682528416602082015260408101839052608060608201819052600090611672908301846110da565b9695505050505050565b60006020828403121561168e57600080fd5b81516107498161108356fea2646970667358221220636a16a5e098e9855e189378cb21d1dfbd6dd90403f06f1340d88ae9ccf0c3f164736f6c63430008110033",
  "linkReferences": {},
  "deployedLinkReferences": {}
}