{
  "_format": "hh-sol-artifact-1",
  "contractName": "NftTrader",
  "sourceName": "contracts/TradeNFT.sol",
  "abi": [
    {
      "inputs": [
        {
          "internalType": "uint256",
          "name": "price",
          "type": "uint256"
        },
        {
          "internalType": "address",
          "name": "contractAddress",
          "type": "address"
        },
        {
          "internalType": "uint256",
          "name": "tokenId",
          "type": "uint256"
        }
      ],
      "name": "addListing",
      "outputs": [],
      "stateMutability": "nonpayable",
      "type": "function"
    },
    {
      "inputs": [
        {
          "internalType": "address",
          "name": "",
          "type": "address"
        },
        {
          "internalType": "uint256",
          "name": "",
          "type": "uint256"
        }
      ],
      "name": "listings",
      "outputs": [
        {
          "internalType": "uint256",
          "name": "price",
          "type": "uint256"
        },
        {
          "internalType": "address",
          "name": "seller",
          "type": "address"
        }
      ],
      "stateMutability": "view",
      "type": "function"
    }
  ],
  "bytecode": "0x608060405234801561001057600080fd5b50610257806100206000396000f3fe608060405234801561001057600080fd5b50600436106100355760003560e01c806207df301461003a57806380abbe5714610093575b600080fd5b610072610048366004610199565b6000602081815292815260408082209093529081522080546001909101546001600160a01b031682565b604080519283526001600160a01b0390911660208301520160405180910390f35b6100a66100a13660046101c5565b6100a8565b005b6040516331a9108f60e11b815260048101829052829033906001600160a01b03831690636352211e90602401602060405180830381865afa1580156100f1573d6000803e3d6000fd5b505050506040513d601f19601f8201168201806040525081019061011591906101fd565b6001600160a01b03161461017b5760405162461bcd60e51b815260206004820152602360248201527f4e667454616465723a2073656c6c6572206d757374206f776e20676976656e206044820152621b999d60ea1b606482015260840160405180910390fd5b50505050565b6001600160a01b038116811461019657600080fd5b50565b600080604083850312156101ac57600080fd5b82356101b781610181565b946020939093013593505050565b6000806000606084860312156101da57600080fd5b8335925060208401356101ec81610181565b929592945050506040919091013590565b60006020828403121561020f57600080fd5b815161021a81610181565b939250505056fea2646970667358221220f6869cf44b4de30afe67bc4106215a3956b76a83e100f6c749d690bb7647c6ad64736f6c63430008110033",
  "linkReferences": {},
  "deployedLinkReferences": {}
}