{
  "_format": "hh-sol-artifact-1",
  "contractName": "NFT_EION",
  "sourceName": "contracts/NFTeion.sol",
  "abi": [
    {
      "inputs": [],
      "stateMutability": "nonpayable",
      "type": "constructor"
    },
    {
      "anonymous": false,
      "inputs": [
        {
          "indexed": true,
          "internalType": "address",
          "name": "owner",
          "type": "address"
        },
        {
          "indexed": true,
          "internalType": "address",
          "name": "approved",
          "type": "address"
        },
        {
          "indexed": true,
          "internalType": "uint256",
          "name": "tokenId",
          "type": "uint256"
        }
      ],
      "name": "Approval",
      "type": "event"
    },
    {
      "anonymous": false,
      "inputs": [
        {
          "indexed": true,
          "internalType": "address",
          "name": "owner",
          "type": "address"
        },
        {
          "indexed": true,
          "internalType": "address",
          "name": "operator",
          "type": "address"
        },
        {
          "indexed": false,
          "internalType": "bool",
          "name": "approved",
          "type": "bool"
        }
      ],
      "name": "ApprovalForAll",
      "type": "event"
    },
    {
      "anonymous": false,
      "inputs": [
        {
          "indexed": true,
          "internalType": "address",
          "name": "from",
          "type": "address"
        },
        {
          "indexed": true,
          "internalType": "address",
          "name": "to",
          "type": "address"
        },
        {
          "indexed": true,
          "internalType": "uint256",
          "name": "tokenId",
          "type": "uint256"
        }
      ],
      "name": "Transfer",
      "type": "event"
    },
    {
      "inputs": [],
      "name": "_tokenIds",
      "outputs": [
        {
          "internalType": "uint256",
          "name": "_value",
          "type": "uint256"
        }
      ],
      "stateMutability": "view",
      "type": "function"
    },
    {
      "inputs": [
        {
          "internalType": "uint256",
          "name": "price",
          "type": "uint256"
        },
        {
          "internalType": "uint256",
          "name": "tokenId",
          "type": "uint256"
        }
      ],
      "name": "addListing",
      "outputs": [],
      "stateMutability": "nonpayable",
      "type": "function"
    },
    {
      "inputs": [
        {
          "internalType": "address",
          "name": "to",
          "type": "address"
        },
        {
          "internalType": "uint256",
          "name": "tokenId",
          "type": "uint256"
        }
      ],
      "name": "approve",
      "outputs": [],
      "stateMutability": "nonpayable",
      "type": "function"
    },
    {
      "inputs": [
        {
          "internalType": "address",
          "name": "owner",
          "type": "address"
        }
      ],
      "name": "balanceOf",
      "outputs": [
        {
          "internalType": "uint256",
          "name": "",
          "type": "uint256"
        }
      ],
      "stateMutability": "view",
      "type": "function"
    },
    {
      "inputs": [
        {
          "internalType": "address",
          "name": "",
          "type": "address"
        }
      ],
      "name": "balances",
      "outputs": [
        {
          "internalType": "uint256",
          "name": "",
          "type": "uint256"
        }
      ],
      "stateMutability": "view",
      "type": "function"
    },
    {
      "inputs": [
        {
          "internalType": "uint256",
          "name": "tokenId",
          "type": "uint256"
        }
      ],
      "name": "getApproved",
      "outputs": [
        {
          "internalType": "address",
          "name": "",
          "type": "address"
        }
      ],
      "stateMutability": "view",
      "type": "function"
    },
    {
      "inputs": [
        {
          "internalType": "address",
          "name": "owner",
          "type": "address"
        },
        {
          "internalType": "address",
          "name": "operator",
          "type": "address"
        }
      ],
      "name": "isApprovedForAll",
      "outputs": [
        {
          "internalType": "bool",
          "name": "",
          "type": "bool"
        }
      ],
      "stateMutability": "view",
      "type": "function"
    },
    {
      "inputs": [
        {
          "internalType": "uint256",
          "name": "",
          "type": "uint256"
        }
      ],
      "name": "listings",
      "outputs": [
        {
          "internalType": "uint256",
          "name": "price",
          "type": "uint256"
        },
        {
          "internalType": "address",
          "name": "seller",
          "type": "address"
        }
      ],
      "stateMutability": "view",
      "type": "function"
    },
    {
      "inputs": [
        {
          "internalType": "address",
          "name": "recipient",
          "type": "address"
        },
        {
          "internalType": "string",
          "name": "tokenURI",
          "type": "string"
        },
        {
          "internalType": "uint96",
          "name": "royaltiesPercentage",
          "type": "uint96"
        }
      ],
      "name": "mintNFT",
      "outputs": [
        {
          "internalType": "uint256",
          "name": "",
          "type": "uint256"
        }
      ],
      "stateMutability": "nonpayable",
      "type": "function"
    },
    {
      "inputs": [],
      "name": "name",
      "outputs": [
        {
          "internalType": "string",
          "name": "",
          "type": "string"
        }
      ],
      "stateMutability": "view",
      "type": "function"
    },
    {
      "inputs": [
        {
          "internalType": "uint256",
          "name": "tokenId",
          "type": "uint256"
        }
      ],
      "name": "ownerOf",
      "outputs": [
        {
          "internalType": "address",
          "name": "",
          "type": "address"
        }
      ],
      "stateMutability": "view",
      "type": "function"
    },
    {
      "inputs": [
        {
          "internalType": "uint256",
          "name": "tokenId",
          "type": "uint256"
        }
      ],
      "name": "purchase",
      "outputs": [],
      "stateMutability": "payable",
      "type": "function"
    },
    {
      "inputs": [
        {
          "internalType": "uint256",
          "name": "_tokenId",
          "type": "uint256"
        },
        {
          "internalType": "uint256",
          "name": "_salePrice",
          "type": "uint256"
        }
      ],
      "name": "royaltyInfo",
      "outputs": [
        {
          "internalType": "address",
          "name": "",
          "type": "address"
        },
        {
          "internalType": "uint256",
          "name": "",
          "type": "uint256"
        }
      ],
      "stateMutability": "view",
      "type": "function"
    },
    {
      "inputs": [
        {
          "internalType": "address",
          "name": "from",
          "type": "address"
        },
        {
          "internalType": "address",
          "name": "to",
          "type": "address"
        },
        {
          "internalType": "uint256",
          "name": "tokenId",
          "type": "uint256"
        }
      ],
      "name": "safeTransferFrom",
      "outputs": [],
      "stateMutability": "nonpayable",
      "type": "function"
    },
    {
      "inputs": [
        {
          "internalType": "address",
          "name": "from",
          "type": "address"
        },
        {
          "internalType": "address",
          "name": "to",
          "type": "address"
        },
        {
          "internalType": "uint256",
          "name": "tokenId",
          "type": "uint256"
        },
        {
          "internalType": "bytes",
          "name": "data",
          "type": "bytes"
        }
      ],
      "name": "safeTransferFrom",
      "outputs": [],
      "stateMutability": "nonpayable",
      "type": "function"
    },
    {
      "inputs": [
        {
          "internalType": "address",
          "name": "operator",
          "type": "address"
        },
        {
          "internalType": "bool",
          "name": "approved",
          "type": "bool"
        }
      ],
      "name": "setApprovalForAll",
      "outputs": [],
      "stateMutability": "nonpayable",
      "type": "function"
    },
    {
      "inputs": [
        {
          "internalType": "uint256",
          "name": "tokenId",
          "type": "uint256"
        },
        {
          "internalType": "uint96",
          "name": "royaltiesPercentage",
          "type": "uint96"
        }
      ],
      "name": "setTokenRoyalty",
      "outputs": [],
      "stateMutability": "nonpayable",
      "type": "function"
    },
    {
      "inputs": [
        {
          "internalType": "bytes4",
          "name": "interfaceId",
          "type": "bytes4"
        }
      ],
      "name": "supportsInterface",
      "outputs": [
        {
          "internalType": "bool",
          "name": "",
          "type": "bool"
        }
      ],
      "stateMutability": "view",
      "type": "function"
    },
    {
      "inputs": [],
      "name": "symbol",
      "outputs": [
        {
          "internalType": "string",
          "name": "",
          "type": "string"
        }
      ],
      "stateMutability": "view",
      "type": "function"
    },
    {
      "inputs": [
        {
          "internalType": "uint256",
          "name": "tokenId",
          "type": "uint256"
        }
      ],
      "name": "tokenURI",
      "outputs": [
        {
          "internalType": "string",
          "name": "",
          "type": "string"
        }
      ],
      "stateMutability": "view",
      "type": "function"
    },
    {
      "inputs": [
        {
          "internalType": "address",
          "name": "from",
          "type": "address"
        },
        {
          "internalType": "address",
          "name": "to",
          "type": "address"
        },
        {
          "internalType": "uint256",
          "name": "tokenId",
          "type": "uint256"
        }
      ],
      "name": "transferFrom",
      "outputs": [],
      "stateMutability": "nonpayable",
      "type": "function"
    },
    {
      "inputs": [
        {
          "internalType": "address payable",
          "name": "destAddress",
          "type": "address"
        }
      ],
      "name": "withdraw",
      "outputs": [],
      "stateMutability": "nonpayable",
      "type": "function"
    }
  ],
  "bytecode": "0x60806040523480156200001157600080fd5b506040518060400160405280600881526020016727232a2fa2a4a7a760c11b8152506040518060400160405280600381526020016213919560ea1b81525081600090816200006091906200011d565b5060016200006f82826200011d565b505050620001e9565b634e487b7160e01b600052604160045260246000fd5b600181811c90821680620000a357607f821691505b602082108103620000c457634e487b7160e01b600052602260045260246000fd5b50919050565b601f8211156200011857600081815260208120601f850160051c81016020861015620000f35750805b601f850160051c820191505b818110156200011457828155600101620000ff565b5050505b505050565b81516001600160401b0381111562000139576200013962000078565b62000151816200014a84546200008e565b84620000ca565b602080601f831160018114620001895760008415620001705750858301515b600019600386901b1c1916600185901b17855562000114565b600085815260208120601f198616915b82811015620001ba5788860151825594840194600190910190840162000199565b5085821015620001d95787850151600019600388901b60f8161c191681555b5050505050600190811b01905550565b611f1d80620001f96000396000f3fe6080604052600436106101355760003560e01c806367a4f4a9116100ab578063aa46a4001161006f578063aa46a4001461039a578063b88d4fde146103b1578063c87b56dd146103d1578063de74e57b146103f1578063e985e9c51461044b578063efef39a11461046b57600080fd5b806367a4f4a91461030557806370a0823114610325578063836cf6e91461034557806395d89b4114610365578063a22cb4651461037a57600080fd5b806327e235e3116100fd57806327e235e31461020b5780632a55205a146102465780633758933f1461028557806342842e0e146102a557806351cff8d9146102c55780636352211e146102e557600080fd5b806301ffc9a71461013a57806306fdde031461016f578063081812fc14610191578063095ea7b3146101c957806323b872dd146101eb575b600080fd5b34801561014657600080fd5b5061015a610155366004611804565b61047e565b60405190151581526020015b60405180910390f35b34801561017b57600080fd5b5061018461048f565b6040516101669190611871565b34801561019d57600080fd5b506101b16101ac366004611884565b610521565b6040516001600160a01b039091168152602001610166565b3480156101d557600080fd5b506101e96101e43660046118b2565b610548565b005b3480156101f757600080fd5b506101e96102063660046118de565b610662565b34801561021757600080fd5b5061023861022636600461191f565b600b6020526000908152604090205481565b604051908152602001610166565b34801561025257600080fd5b5061026661026136600461193c565b610693565b604080516001600160a01b039093168352602083019190915201610166565b34801561029157600080fd5b506102386102a0366004611a06565b61073f565b3480156102b157600080fd5b506101e96102c03660046118de565b61080d565b3480156102d157600080fd5b506101e96102e036600461191f565b610828565b3480156102f157600080fd5b506101b1610300366004611884565b610880565b34801561031157600080fd5b506101e9610320366004611a7a565b6108e0565b34801561033157600080fd5b5061023861034036600461191f565b61097e565b34801561035157600080fd5b506101e961036036600461193c565b610a04565b34801561037157600080fd5b50610184610ac9565b34801561038657600080fd5b506101e9610395366004611aa6565b610ad8565b3480156103a657600080fd5b506009546102389081565b3480156103bd57600080fd5b506101e96103cc366004611ae4565b610ae3565b3480156103dd57600080fd5b506101846103ec366004611884565b610b1b565b3480156103fd57600080fd5b5061042e61040c366004611884565b600a60205260009081526040902080546001909101546001600160a01b031682565b604080519283526001600160a01b03909116602083015201610166565b34801561045757600080fd5b5061015a610466366004611b64565b610c23565b6101e9610479366004611884565b610c51565b600061048982610d37565b92915050565b60606000805461049e90611b92565b80601f01602080910402602001604051908101604052809291908181526020018280546104ca90611b92565b80156105175780601f106104ec57610100808354040283529160200191610517565b820191906000526020600020905b8154815290600101906020018083116104fa57829003601f168201915b5050505050905090565b600061052c82610d5c565b506000908152600460205260409020546001600160a01b031690565b600061055382610880565b9050806001600160a01b0316836001600160a01b0316036105c55760405162461bcd60e51b815260206004820152602160248201527f4552433732313a20617070726f76616c20746f2063757272656e74206f776e656044820152603960f91b60648201526084015b60405180910390fd5b336001600160a01b03821614806105e157506105e18133610c23565b6106535760405162461bcd60e51b815260206004820152603d60248201527f4552433732313a20617070726f76652063616c6c6572206973206e6f7420746f60448201527f6b656e206f776e6572206f7220617070726f76656420666f7220616c6c00000060648201526084016105bc565b61065d8383610dbe565b505050565b61066c3382610e2c565b6106885760405162461bcd60e51b81526004016105bc90611bcc565b61065d838383610e8a565b60008281526008602090815260408083208151808301909252546001600160a01b038116808352600160a01b9091046001600160601b03169282019290925282916107085750604080518082019091526007546001600160a01b0381168252600160a01b90046001600160601b031660208201525b602081015160009061271090610727906001600160601b031687611c2f565b6107319190611c46565b915196919550909350505050565b60006064826001600160601b031611156107c15760405162461bcd60e51b815260206004820152603960248201527f4e46545f45494f4e3a20726f79616c7469657350657263656e6e746167656e2060448201527f6d757374206265206265747765656e203020616e64203130300000000000000060648201526084016105bc565b6107cf600980546001019055565b60006107da60095490565b90506107e68582610ffb565b6107f08185611194565b6108058133610800866064611c68565b611227565b949350505050565b61065d83838360405180602001604052806000815250610ae3565b336000908152600b60205260408082205490516001600160a01b0384169282156108fc02929190818181858888f1935050505015801561086c573d6000803e3d6000fd5b5050336000908152600b6020526040812055565b6000818152600260205260408120546001600160a01b0316806104895760405162461bcd60e51b8152602060048201526018602482015277115490cdcc8c4e881a5b9d985b1a59081d1bdad95b88125160421b60448201526064016105bc565b60006108ed836000610693565b5090506001600160a01b038116331461096e5760405162461bcd60e51b815260206004820152603b60248201527f4e46545f45494f4e3a206f6e6c7920746865206f776e6572206f6620636f707960448201527f72696768742063616e2075736520746869732066756e6374696f6e000000000060648201526084016105bc565b61065d8333610800856064611c68565b60006001600160a01b0382166109e85760405162461bcd60e51b815260206004820152602960248201527f4552433732313a2061646472657373207a65726f206973206e6f7420612076616044820152683634b21037bbb732b960b91b60648201526084016105bc565b506001600160a01b031660009081526003602052604090205490565b33610a0e82610880565b6001600160a01b031614610a705760405162461bcd60e51b815260206004820152602360248201527f4e46545f45494f4e3a2073656c6c6572206d757374206f776e20676976656e206044820152621b999d60ea1b60648201526084016105bc565b6040805180820182528381523360208083019182526000858152600a90915292909220905181559051600190910180546001600160a01b0319166001600160a01b03909216919091179055610ac53082610dbe565b5050565b60606001805461049e90611b92565b610ac5338383611335565b610aed3383610e2c565b610b095760405162461bcd60e51b81526004016105bc90611bcc565b610b1584848484611403565b50505050565b6060610b2682610d5c565b60008281526006602052604081208054610b3f90611b92565b80601f0160208091040260200160405190810160405280929190818152602001828054610b6b90611b92565b8015610bb85780601f10610b8d57610100808354040283529160200191610bb8565b820191906000526020600020905b815481529060010190602001808311610b9b57829003601f168201915b505050505090506000610bd660408051602081019091526000815290565b90508051600003610be8575092915050565b815115610c1a578082604051602001610c02929190611c93565b60405160208183030381529060405292505050919050565b61080584611436565b6001600160a01b03918216600090815260056020908152604080832093909416825291909152205460ff1690565b6000818152600a6020908152604091829020825180840190935280548084526001909101546001600160a01b031691830191909152341015610c9257600080fd5b600080610c9f8434610693565b9092509050610cae8134611cc2565b6020808501516001600160a01b03166000908152600b909152604081208054909190610cdb908490611cd5565b90915550506001600160a01b0382166000908152600b602052604081208054839290610d08908490611cd5565b90915550610d1890503385610dbe565b610b158360200151338660405180602001604052806000815250610ae3565b60006001600160e01b0319821663152a902d60e11b14806104895750610489826114aa565b6000818152600260205260409020546001600160a01b0316610dbb5760405162461bcd60e51b8152602060048201526018602482015277115490cdcc8c4e881a5b9d985b1a59081d1bdad95b88125160421b60448201526064016105bc565b50565b600081815260046020526040902080546001600160a01b0319166001600160a01b0384169081179091558190610df382610880565b6001600160a01b03167f8c5be1e5ebec7d5bd14f71427d1e84f3dd0314c0f7b2291e5b200ac8c7c3b92560405160405180910390a45050565b600080610e3883610880565b9050806001600160a01b0316846001600160a01b03161480610e5f5750610e5f8185610c23565b806108055750836001600160a01b0316610e7884610521565b6001600160a01b031614949350505050565b826001600160a01b0316610e9d82610880565b6001600160a01b031614610ec35760405162461bcd60e51b81526004016105bc90611ce8565b6001600160a01b038216610f255760405162461bcd60e51b8152602060048201526024808201527f4552433732313a207472616e7366657220746f20746865207a65726f206164646044820152637265737360e01b60648201526084016105bc565b610f3283838360016114fa565b826001600160a01b0316610f4582610880565b6001600160a01b031614610f6b5760405162461bcd60e51b81526004016105bc90611ce8565b600081815260046020908152604080832080546001600160a01b03199081169091556001600160a01b0387811680865260038552838620805460001901905590871680865283862080546001019055868652600290945282852080549092168417909155905184937fddf252ad1be2c89b69c2b068fc378daa952ba7f163c4a11628f55a4df523b3ef91a4505050565b6001600160a01b0382166110515760405162461bcd60e51b815260206004820181905260248201527f4552433732313a206d696e7420746f20746865207a65726f206164647265737360448201526064016105bc565b6000818152600260205260409020546001600160a01b0316156110b65760405162461bcd60e51b815260206004820152601c60248201527f4552433732313a20746f6b656e20616c7265616479206d696e7465640000000060448201526064016105bc565b6110c46000838360016114fa565b6000818152600260205260409020546001600160a01b0316156111295760405162461bcd60e51b815260206004820152601c60248201527f4552433732313a20746f6b656e20616c7265616479206d696e7465640000000060448201526064016105bc565b6001600160a01b038216600081815260036020908152604080832080546001019055848352600290915280822080546001600160a01b0319168417905551839291907fddf252ad1be2c89b69c2b068fc378daa952ba7f163c4a11628f55a4df523b3ef908290a45050565b6000828152600260205260409020546001600160a01b031661120f5760405162461bcd60e51b815260206004820152602e60248201527f45524337323155524953746f726167653a2055524920736574206f66206e6f6e60448201526d32bc34b9ba32b73a103a37b5b2b760911b60648201526084016105bc565b600082815260066020526040902061065d8282611d7b565b6127106001600160601b03821611156112955760405162461bcd60e51b815260206004820152602a60248201527f455243323938313a20726f79616c7479206665652077696c6c206578636565646044820152692073616c65507269636560b01b60648201526084016105bc565b6001600160a01b0382166112eb5760405162461bcd60e51b815260206004820152601b60248201527f455243323938313a20496e76616c696420706172616d6574657273000000000060448201526064016105bc565b6040805180820182526001600160a01b0393841681526001600160601b0392831660208083019182526000968752600890529190942093519051909116600160a01b029116179055565b816001600160a01b0316836001600160a01b0316036113965760405162461bcd60e51b815260206004820152601960248201527f4552433732313a20617070726f766520746f2063616c6c65720000000000000060448201526064016105bc565b6001600160a01b03838116600081815260056020908152604080832094871680845294825291829020805460ff191686151590811790915591519182527f17307eab39ab6107e8899845ad3d59bd9653f200f220920489ca2b5937696c31910160405180910390a3505050565b61140e848484610e8a565b61141a84848484611582565b610b155760405162461bcd60e51b81526004016105bc90611e3b565b606061144182610d5c565b600061145860408051602081019091526000815290565b9050600081511161147857604051806020016040528060008152506114a3565b8061148284611683565b604051602001611493929190611c93565b6040516020818303038152906040525b9392505050565b60006001600160e01b031982166380ac58cd60e01b14806114db57506001600160e01b03198216635b5e139f60e01b145b8061048957506301ffc9a760e01b6001600160e01b0319831614610489565b6001811115610b15576001600160a01b03841615611540576001600160a01b0384166000908152600360205260408120805483929061153a908490611cc2565b90915550505b6001600160a01b03831615610b15576001600160a01b03831660009081526003602052604081208054839290611577908490611cd5565b909155505050505050565b60006001600160a01b0384163b1561167857604051630a85bd0160e11b81526001600160a01b0385169063150b7a02906115c6903390899088908890600401611e8d565b6020604051808303816000875af1925050508015611601575060408051601f3d908101601f191682019092526115fe91810190611eca565b60015b61165e573d80801561162f576040519150601f19603f3d011682016040523d82523d6000602084013e611634565b606091505b5080516000036116565760405162461bcd60e51b81526004016105bc90611e3b565b805181602001fd5b6001600160e01b031916630a85bd0160e11b149050610805565b506001949350505050565b6060600061169083611716565b600101905060008167ffffffffffffffff8111156116b0576116b061195e565b6040519080825280601f01601f1916602001820160405280156116da576020820181803683370190505b5090508181016020015b600019016f181899199a1a9b1b9c1cb0b131b232b360811b600a86061a8153600a85049450846116e457509392505050565b60008072184f03e93ff9f4daa797ed6e38ed64bf6a1f0160401b83106117555772184f03e93ff9f4daa797ed6e38ed64bf6a1f0160401b830492506040015b6d04ee2d6d415b85acef81000000008310611781576d04ee2d6d415b85acef8100000000830492506020015b662386f26fc10000831061179f57662386f26fc10000830492506010015b6305f5e10083106117b7576305f5e100830492506008015b61271083106117cb57612710830492506004015b606483106117dd576064830492506002015b600a83106104895760010192915050565b6001600160e01b031981168114610dbb57600080fd5b60006020828403121561181657600080fd5b81356114a3816117ee565b60005b8381101561183c578181015183820152602001611824565b50506000910152565b6000815180845261185d816020860160208601611821565b601f01601f19169290920160200192915050565b6020815260006114a36020830184611845565b60006020828403121561189657600080fd5b5035919050565b6001600160a01b0381168114610dbb57600080fd5b600080604083850312156118c557600080fd5b82356118d08161189d565b946020939093013593505050565b6000806000606084860312156118f357600080fd5b83356118fe8161189d565b9250602084013561190e8161189d565b929592945050506040919091013590565b60006020828403121561193157600080fd5b81356114a38161189d565b6000806040838503121561194f57600080fd5b50508035926020909101359150565b634e487b7160e01b600052604160045260246000fd5b600067ffffffffffffffff8084111561198f5761198f61195e565b604051601f8501601f19908116603f011681019082821181831017156119b7576119b761195e565b816040528093508581528686860111156119d057600080fd5b858560208301376000602087830101525050509392505050565b80356001600160601b0381168114611a0157600080fd5b919050565b600080600060608486031215611a1b57600080fd5b8335611a268161189d565b9250602084013567ffffffffffffffff811115611a4257600080fd5b8401601f81018613611a5357600080fd5b611a6286823560208401611974565b925050611a71604085016119ea565b90509250925092565b60008060408385031215611a8d57600080fd5b82359150611a9d602084016119ea565b90509250929050565b60008060408385031215611ab957600080fd5b8235611ac48161189d565b915060208301358015158114611ad957600080fd5b809150509250929050565b60008060008060808587031215611afa57600080fd5b8435611b058161189d565b93506020850135611b158161189d565b925060408501359150606085013567ffffffffffffffff811115611b3857600080fd5b8501601f81018713611b4957600080fd5b611b5887823560208401611974565b91505092959194509250565b60008060408385031215611b7757600080fd5b8235611b828161189d565b91506020830135611ad98161189d565b600181811c90821680611ba657607f821691505b602082108103611bc657634e487b7160e01b600052602260045260246000fd5b50919050565b6020808252602d908201527f4552433732313a2063616c6c6572206973206e6f7420746f6b656e206f776e6560408201526c1c881bdc88185c1c1c9bdd9959609a1b606082015260800190565b634e487b7160e01b600052601160045260246000fd5b808202811582820484141761048957610489611c19565b600082611c6357634e487b7160e01b600052601260045260246000fd5b500490565b6001600160601b03818116838216028082169190828114611c8b57611c8b611c19565b505092915050565b60008351611ca5818460208801611821565b835190830190611cb9818360208801611821565b01949350505050565b8181038181111561048957610489611c19565b8082018082111561048957610489611c19565b60208082526025908201527f4552433732313a207472616e736665722066726f6d20696e636f72726563742060408201526437bbb732b960d91b606082015260800190565b601f82111561065d57600081815260208120601f850160051c81016020861015611d545750805b601f850160051c820191505b81811015611d7357828155600101611d60565b505050505050565b815167ffffffffffffffff811115611d9557611d9561195e565b611da981611da38454611b92565b84611d2d565b602080601f831160018114611dde5760008415611dc65750858301515b600019600386901b1c1916600185901b178555611d73565b600085815260208120601f198616915b82811015611e0d57888601518255948401946001909101908401611dee565b5085821015611e2b5787850151600019600388901b60f8161c191681555b5050505050600190811b01905550565b60208082526032908201527f4552433732313a207472616e7366657220746f206e6f6e20455243373231526560408201527131b2b4bb32b91034b6b83632b6b2b73a32b960711b606082015260800190565b6001600160a01b0385811682528416602082015260408101839052608060608201819052600090611ec090830184611845565b9695505050505050565b600060208284031215611edc57600080fd5b81516114a3816117ee56fea26469706673582212202b9773461ac283bca14dd06bd5f9688cebaf5a7e2da66ed32aab62d467d7bf4164736f6c63430008110033",
  "linkReferences": {},
  "deployedLinkReferences": {}
}